{
  "_format": "hh-sol-artifact-1",
  "contractName": "Shack15NFTToken",
  "sourceName": "contracts/Shack15NFTToken.sol",
  "abi": [
    {
      "inputs": [
        {
          "internalType": "string",
          "name": "uri_",
          "type": "string"
        }
      ],
      "stateMutability": "nonpayable",
      "type": "constructor"
    },
    {
      "anonymous": false,
      "inputs": [
        {
          "indexed": true,
          "internalType": "address",
          "name": "account",
          "type": "address"
        },
        {
          "indexed": true,
          "internalType": "address",
          "name": "operator",
          "type": "address"
        },
        {
          "indexed": false,
          "internalType": "bool",
          "name": "approved",
          "type": "bool"
        }
      ],
      "name": "ApprovalForAll",
      "type": "event"
    },
    {
      "anonymous": false,
      "inputs": [
        {
          "indexed": true,
          "internalType": "bytes32",
          "name": "role",
          "type": "bytes32"
        },
        {
          "indexed": true,
          "internalType": "bytes32",
          "name": "previousAdminRole",
          "type": "bytes32"
        },
        {
          "indexed": true,
          "internalType": "bytes32",
          "name": "newAdminRole",
          "type": "bytes32"
        }
      ],
      "name": "RoleAdminChanged",
      "type": "event"
    },
    {
      "anonymous": false,
      "inputs": [
        {
          "indexed": true,
          "internalType": "bytes32",
          "name": "role",
          "type": "bytes32"
        },
        {
          "indexed": true,
          "internalType": "address",
          "name": "account",
          "type": "address"
        },
        {
          "indexed": true,
          "internalType": "address",
          "name": "sender",
          "type": "address"
        }
      ],
      "name": "RoleGranted",
      "type": "event"
    },
    {
      "anonymous": false,
      "inputs": [
        {
          "indexed": true,
          "internalType": "bytes32",
          "name": "role",
          "type": "bytes32"
        },
        {
          "indexed": true,
          "internalType": "address",
          "name": "account",
          "type": "address"
        },
        {
          "indexed": true,
          "internalType": "address",
          "name": "sender",
          "type": "address"
        }
      ],
      "name": "RoleRevoked",
      "type": "event"
    },
    {
      "anonymous": false,
      "inputs": [
        {
          "indexed": false,
          "internalType": "address",
          "name": "from",
          "type": "address"
        },
        {
          "indexed": false,
          "internalType": "uint256",
          "name": "tokenId",
          "type": "uint256"
        },
        {
          "indexed": false,
          "internalType": "uint256",
          "name": "amount",
          "type": "uint256"
        },
        {
          "indexed": false,
          "internalType": "enum Shack15NFTToken.TokenType",
          "name": "nfttype",
          "type": "uint8"
        },
        {
          "indexed": false,
          "internalType": "string",
          "name": "tokenURI",
          "type": "string"
        }
      ],
      "name": "TokenMinted",
      "type": "event"
    },
    {
      "anonymous": false,
      "inputs": [
        {
          "indexed": false,
          "internalType": "address",
          "name": "from",
          "type": "address"
        },
        {
          "indexed": false,
          "internalType": "uint256",
          "name": "tokenId",
          "type": "uint256"
        },
        {
          "indexed": false,
          "internalType": "uint256",
          "name": "amount",
          "type": "uint256"
        }
      ],
      "name": "TokenUsed",
      "type": "event"
    },
    {
      "anonymous": false,
      "inputs": [
        {
          "indexed": true,
          "internalType": "address",
          "name": "operator",
          "type": "address"
        },
        {
          "indexed": true,
          "internalType": "address",
          "name": "from",
          "type": "address"
        },
        {
          "indexed": true,
          "internalType": "address",
          "name": "to",
          "type": "address"
        },
        {
          "indexed": false,
          "internalType": "uint256[]",
          "name": "ids",
          "type": "uint256[]"
        },
        {
          "indexed": false,
          "internalType": "uint256[]",
          "name": "values",
          "type": "uint256[]"
        }
      ],
      "name": "TransferBatch",
      "type": "event"
    },
    {
      "anonymous": false,
      "inputs": [
        {
          "indexed": true,
          "internalType": "address",
          "name": "operator",
          "type": "address"
        },
        {
          "indexed": true,
          "internalType": "address",
          "name": "from",
          "type": "address"
        },
        {
          "indexed": true,
          "internalType": "address",
          "name": "to",
          "type": "address"
        },
        {
          "indexed": false,
          "internalType": "uint256",
          "name": "id",
          "type": "uint256"
        },
        {
          "indexed": false,
          "internalType": "uint256",
          "name": "value",
          "type": "uint256"
        }
      ],
      "name": "TransferSingle",
      "type": "event"
    },
    {
      "anonymous": false,
      "inputs": [
        {
          "indexed": false,
          "internalType": "string",
          "name": "value",
          "type": "string"
        },
        {
          "indexed": true,
          "internalType": "uint256",
          "name": "id",
          "type": "uint256"
        }
      ],
      "name": "URI",
      "type": "event"
    },
    {
      "inputs": [],
      "name": "DEFAULT_ADMIN_ROLE",
      "outputs": [
        {
          "internalType": "bytes32",
          "name": "",
          "type": "bytes32"
        }
      ],
      "stateMutability": "view",
      "type": "function"
    },
    {
      "inputs": [],
      "name": "MARKET_PLACE_ROLE",
      "outputs": [
        {
          "internalType": "bytes32",
          "name": "",
          "type": "bytes32"
        }
      ],
      "stateMutability": "view",
      "type": "function"
    },
    {
      "inputs": [],
      "name": "MINTER_ROLE",
      "outputs": [
        {
          "internalType": "bytes32",
          "name": "",
          "type": "bytes32"
        }
      ],
      "stateMutability": "view",
      "type": "function"
    },
    {
      "inputs": [],
      "name": "PAYITFORWARD_HASH",
      "outputs": [
        {
          "internalType": "bytes32",
          "name": "",
          "type": "bytes32"
        }
      ],
      "stateMutability": "view",
      "type": "function"
    },
    {
      "inputs": [],
      "name": "USABLE_HASH",
      "outputs": [
        {
          "internalType": "bytes32",
          "name": "",
          "type": "bytes32"
        }
      ],
      "stateMutability": "view",
      "type": "function"
    },
    {
      "inputs": [
        {
          "internalType": "address",
          "name": "account",
          "type": "address"
        },
        {
          "internalType": "uint256",
          "name": "id",
          "type": "uint256"
        }
      ],
      "name": "balanceOf",
      "outputs": [
        {
          "internalType": "uint256",
          "name": "",
          "type": "uint256"
        }
      ],
      "stateMutability": "view",
      "type": "function"
    },
    {
      "inputs": [
        {
          "internalType": "address[]",
          "name": "accounts",
          "type": "address[]"
        },
        {
          "internalType": "uint256[]",
          "name": "ids",
          "type": "uint256[]"
        }
      ],
      "name": "balanceOfBatch",
      "outputs": [
        {
          "internalType": "uint256[]",
          "name": "",
          "type": "uint256[]"
        }
      ],
      "stateMutability": "view",
      "type": "function"
    },
    {
      "inputs": [
        {
          "internalType": "address",
          "name": "member",
          "type": "address"
        },
        {
          "internalType": "uint256",
          "name": "tokenId",
          "type": "uint256"
        }
      ],
      "name": "getLocked",
      "outputs": [
        {
          "internalType": "uint256",
          "name": "",
          "type": "uint256"
        }
      ],
      "stateMutability": "view",
      "type": "function"
    },
    {
      "inputs": [
        {
          "internalType": "bytes32",
          "name": "role",
          "type": "bytes32"
        }
      ],
      "name": "getRoleAdmin",
      "outputs": [
        {
          "internalType": "bytes32",
          "name": "",
          "type": "bytes32"
        }
      ],
      "stateMutability": "view",
      "type": "function"
    },
    {
      "inputs": [
        {
          "internalType": "bytes32",
          "name": "role",
          "type": "bytes32"
        },
        {
          "internalType": "uint256",
          "name": "index",
          "type": "uint256"
        }
      ],
      "name": "getRoleMember",
      "outputs": [
        {
          "internalType": "address",
          "name": "",
          "type": "address"
        }
      ],
      "stateMutability": "view",
      "type": "function"
    },
    {
      "inputs": [
        {
          "internalType": "bytes32",
          "name": "role",
          "type": "bytes32"
        }
      ],
      "name": "getRoleMemberCount",
      "outputs": [
        {
          "internalType": "uint256",
          "name": "",
          "type": "uint256"
        }
      ],
      "stateMutability": "view",
      "type": "function"
    },
    {
      "inputs": [
        {
          "internalType": "uint256",
          "name": "tokenId",
          "type": "uint256"
        }
      ],
      "name": "getTokenURI",
      "outputs": [
        {
          "internalType": "string",
          "name": "",
          "type": "string"
        }
      ],
      "stateMutability": "view",
      "type": "function"
    },
    {
      "inputs": [
        {
          "internalType": "address",
          "name": "member",
          "type": "address"
        },
        {
          "internalType": "uint256",
          "name": "tokenId",
          "type": "uint256"
        }
      ],
      "name": "getType",
      "outputs": [
        {
          "internalType": "enum Shack15NFTToken.TokenType",
          "name": "",
          "type": "uint8"
        }
      ],
      "stateMutability": "view",
      "type": "function"
    },
    {
      "inputs": [
        {
          "internalType": "bytes32",
          "name": "role",
          "type": "bytes32"
        },
        {
          "internalType": "address",
          "name": "account",
          "type": "address"
        }
      ],
      "name": "grantRole",
      "outputs": [],
      "stateMutability": "nonpayable",
      "type": "function"
    },
    {
      "inputs": [
        {
          "internalType": "bytes32",
          "name": "role",
          "type": "bytes32"
        },
        {
          "internalType": "address",
          "name": "account",
          "type": "address"
        }
      ],
      "name": "hasRole",
      "outputs": [
        {
          "internalType": "bool",
          "name": "",
          "type": "bool"
        }
      ],
      "stateMutability": "view",
      "type": "function"
    },
    {
      "inputs": [
        {
          "internalType": "address",
          "name": "account",
          "type": "address"
        },
        {
          "internalType": "address",
          "name": "operator",
          "type": "address"
        }
      ],
      "name": "isApprovedForAll",
      "outputs": [
        {
          "internalType": "bool",
          "name": "",
          "type": "bool"
        }
      ],
      "stateMutability": "view",
      "type": "function"
    },
    {
      "inputs": [
        {
          "internalType": "address",
          "name": "marketPlace",
          "type": "address"
        },
        {
          "internalType": "uint256",
          "name": "tokenId",
          "type": "uint256"
        }
      ],
      "name": "lock",
      "outputs": [],
      "stateMutability": "nonpayable",
      "type": "function"
    },
    {
      "inputs": [
        {
          "internalType": "address",
          "name": "account",
          "type": "address"
        },
        {
          "internalType": "uint256",
          "name": "amount",
          "type": "uint256"
        },
        {
          "internalType": "bytes",
          "name": "data",
          "type": "bytes"
        },
        {
          "internalType": "string",
          "name": "tokenURI",
          "type": "string"
        }
      ],
      "name": "mint",
      "outputs": [],
      "stateMutability": "nonpayable",
      "type": "function"
    },
    {
      "inputs": [
        {
          "internalType": "address",
          "name": "account",
          "type": "address"
        },
        {
          "internalType": "uint256[]",
          "name": "ids",
          "type": "uint256[]"
        },
        {
          "internalType": "uint256[]",
          "name": "amounts",
          "type": "uint256[]"
        },
        {
          "internalType": "bytes",
          "name": "data",
          "type": "bytes"
        }
      ],
      "name": "mintBatch",
      "outputs": [],
      "stateMutability": "nonpayable",
      "type": "function"
    },
    {
      "inputs": [
        {
          "internalType": "bytes32",
          "name": "role",
          "type": "bytes32"
        },
        {
          "internalType": "address",
          "name": "account",
          "type": "address"
        }
      ],
      "name": "renounceRole",
      "outputs": [],
      "stateMutability": "nonpayable",
      "type": "function"
    },
    {
      "inputs": [
        {
          "internalType": "bytes32",
          "name": "role",
          "type": "bytes32"
        },
        {
          "internalType": "address",
          "name": "account",
          "type": "address"
        }
      ],
      "name": "revokeRole",
      "outputs": [],
      "stateMutability": "nonpayable",
      "type": "function"
    },
    {
      "inputs": [
        {
          "internalType": "address",
          "name": "from",
          "type": "address"
        },
        {
          "internalType": "address",
          "name": "to",
          "type": "address"
        },
        {
          "internalType": "uint256[]",
          "name": "ids",
          "type": "uint256[]"
        },
        {
          "internalType": "uint256[]",
          "name": "amounts",
          "type": "uint256[]"
        },
        {
          "internalType": "bytes",
          "name": "data",
          "type": "bytes"
        }
      ],
      "name": "safeBatchTransferFrom",
      "outputs": [],
      "stateMutability": "nonpayable",
      "type": "function"
    },
    {
      "inputs": [
        {
          "internalType": "address",
          "name": "from",
          "type": "address"
        },
        {
          "internalType": "address",
          "name": "to",
          "type": "address"
        },
        {
          "internalType": "uint256",
          "name": "id",
          "type": "uint256"
        },
        {
          "internalType": "uint256",
          "name": "amount",
          "type": "uint256"
        },
        {
          "internalType": "bytes",
          "name": "data",
          "type": "bytes"
        }
      ],
      "name": "safeTransferFrom",
      "outputs": [],
      "stateMutability": "nonpayable",
      "type": "function"
    },
    {
      "inputs": [
        {
          "internalType": "address",
          "name": "operator",
          "type": "address"
        },
        {
          "internalType": "bool",
          "name": "approved",
          "type": "bool"
        }
      ],
      "name": "setApprovalForAll",
      "outputs": [],
      "stateMutability": "nonpayable",
      "type": "function"
    },
    {
      "inputs": [
        {
          "internalType": "bytes4",
          "name": "interfaceId",
          "type": "bytes4"
        }
      ],
      "name": "supportsInterface",
      "outputs": [
        {
          "internalType": "bool",
          "name": "",
          "type": "bool"
        }
      ],
      "stateMutability": "view",
      "type": "function"
    },
    {
      "inputs": [
        {
          "internalType": "uint256",
          "name": "id",
          "type": "uint256"
        }
      ],
      "name": "uri",
      "outputs": [
        {
          "internalType": "string",
          "name": "",
          "type": "string"
        }
      ],
      "stateMutability": "view",
      "type": "function"
    }
  ],
  "bytecode": "0x608060405260006009553480156200001657600080fd5b50604051620061353803806200613583398181016040528101906200003c9190620005db565b806200004e816200011b60201b60201c565b50620000817f9f2df0fed2c77648de5860a4cc508cd0818c85b8b8a1ab4ceeef8d981c8956a6806200013060201b60201c565b620000d37f4886eb2a6e42985b875fa0acd157df1bad0bfb026625fc9a44e7d0a194cec4a47f9f2df0fed2c77648de5860a4cc508cd0818c85b8b8a1ab4ceeef8d981c8956a66200013060201b60201c565b620001147f9f2df0fed2c77648de5860a4cc508cd0818c85b8b8a1ab4ceeef8d981c8956a6620001086200019360201b60201c565b6200019b60201b60201c565b506200095e565b80600490816200012c919062000877565b5050565b60006200014383620001b160201b60201c565b905081600080858152602001908152602001600020600101819055508181847fbd79b86ffe0ab8e8776151514217cd7cacd52c909f66475c3af44e129f0b00ff60405160405180910390a4505050565b600033905090565b620001ad8282620001d060201b60201c565b5050565b6000806000838152602001908152602001600020600101549050919050565b620001e782826200021860201b6200134c1760201c565b6200021381600160008581526020019081526020016000206200030960201b6200142c1790919060201c565b505050565b6200022a82826200034160201b60201c565b6200030557600160008084815260200190815260200160002060000160008373ffffffffffffffffffffffffffffffffffffffff1673ffffffffffffffffffffffffffffffffffffffff16815260200190815260200160002060006101000a81548160ff021916908315150217905550620002aa6200019360201b60201c565b73ffffffffffffffffffffffffffffffffffffffff168173ffffffffffffffffffffffffffffffffffffffff16837f2f8788117e7eff1d82e926ec794901d17c78024a50270940304540a733656f0d60405160405180910390a45b5050565b600062000339836000018373ffffffffffffffffffffffffffffffffffffffff1660001b620003ab60201b60201c565b905092915050565b600080600084815260200190815260200160002060000160008373ffffffffffffffffffffffffffffffffffffffff1673ffffffffffffffffffffffffffffffffffffffff16815260200190815260200160002060009054906101000a900460ff16905092915050565b6000620003bf83836200042560201b60201c565b6200041a5782600001829080600181540180825580915050600190039060005260206000200160009091909190915055826000018054905083600101600084815260200190815260200160002081905550600190506200041f565b600090505b92915050565b600080836001016000848152602001908152602001600020541415905092915050565b6000604051905090565b600080fd5b600080fd5b600080fd5b600080fd5b6000601f19601f8301169050919050565b7f4e487b7100000000000000000000000000000000000000000000000000000000600052604160045260246000fd5b620004b18262000466565b810181811067ffffffffffffffff82111715620004d357620004d262000477565b5b80604052505050565b6000620004e862000448565b9050620004f68282620004a6565b919050565b600067ffffffffffffffff82111562000519576200051862000477565b5b620005248262000466565b9050602081019050919050565b60005b838110156200055157808201518184015260208101905062000534565b60008484015250505050565b6000620005746200056e84620004fb565b620004dc565b90508281526020810184848401111562000593576200059262000461565b5b620005a084828562000531565b509392505050565b600082601f830112620005c057620005bf6200045c565b5b8151620005d28482602086016200055d565b91505092915050565b600060208284031215620005f457620005f362000452565b5b600082015167ffffffffffffffff81111562000615576200061462000457565b5b6200062384828501620005a8565b91505092915050565b600081519050919050565b7f4e487b7100000000000000000000000000000000000000000000000000000000600052602260045260246000fd5b600060028204905060018216806200067f57607f821691505b60208210810362000695576200069462000637565b5b50919050565b60008190508160005260206000209050919050565b60006020601f8301049050919050565b600082821b905092915050565b600060088302620006ff7fffffffffffffffffffffffffffffffffffffffffffffffffffffffffffffffff82620006c0565b6200070b8683620006c0565b95508019841693508086168417925050509392505050565b6000819050919050565b6000819050919050565b600062000758620007526200074c8462000723565b6200072d565b62000723565b9050919050565b6000819050919050565b620007748362000737565b6200078c62000783826200075f565b848454620006cd565b825550505050565b600090565b620007a362000794565b620007b081848462000769565b505050565b5b81811015620007d857620007cc60008262000799565b600181019050620007b6565b5050565b601f8211156200082757620007f1816200069b565b620007fc84620006b0565b810160208510156200080c578190505b620008246200081b85620006b0565b830182620007b5565b50505b505050565b600082821c905092915050565b60006200084c600019846008026200082c565b1980831691505092915050565b600062000867838362000839565b9150826002028217905092915050565b62000882826200062c565b67ffffffffffffffff8111156200089e576200089d62000477565b5b620008aa825462000666565b620008b7828285620007dc565b600060209050601f831160018114620008ef5760008415620008da578287015190505b620008e6858262000859565b86555062000956565b601f198416620008ff866200069b565b60005b82811015620009295784890151825560018201915060208501945060208101905062000902565b8683101562000949578489015162000945601f89168262000839565b8355505b6001600288020188555050505b505050505050565b6157c7806200096e6000396000f3fe608060405234801561001057600080fd5b506004361061018d5760003560e01c806391d14854116100de578063ca15c87311610097578063d547741f11610071578063d547741f146104de578063d643a04b146104fa578063e985e9c514610518578063f242432a146105485761018d565b8063ca15c87314610472578063d08d3e34146104a2578063d5391393146104c05761018d565b806391d148541461038c578063a217fddf146103bc578063a22cb465146103da578063a8821a4e146103f6578063b31a834214610426578063c59747a0146104565761018d565b80632eb2c2d61161014b5780633bb3a24d116101255780633bb3a24d146102de5780634e1273f41461030e5780636a38adbc1461033e5780639010d07c1461035c5761018d565b80632eb2c2d61461028a5780632f2ff15d146102a657806336568abe146102c25761018d565b8062fdd58e1461019257806301ffc9a7146101c25780630e89341c146101f25780631f7fdffa14610222578063248a9ca31461023e578063282d3fdf1461026e575b600080fd5b6101ac60048036038101906101a79190613409565b610564565b6040516101b99190613458565b60405180910390f35b6101dc60048036038101906101d791906134cb565b61062d565b6040516101e99190613513565b60405180910390f35b61020c6004803603810190610207919061352e565b6107ef565b60405161021991906135eb565b60405180910390f35b61023c6004803603810190610237919061380a565b610834565b005b610258600480360381019061025391906138fb565b6108b6565b6040516102659190613937565b60405180910390f35b61028860048036038101906102839190613409565b6108d5565b005b6102a4600480360381019061029f9190613952565b610b72565b005b6102c060048036038101906102bb9190613a21565b610c13565b005b6102dc60048036038101906102d79190613a21565b610c34565b005b6102f860048036038101906102f3919061352e565b610cb7565b60405161030591906135eb565b60405180910390f35b61032860048036038101906103239190613b24565b610d5c565b6040516103359190613c5a565b60405180910390f35b610346610e75565b6040516103539190613937565b60405180910390f35b61037660048036038101906103719190613c7c565b610e99565b6040516103839190613ccb565b60405180910390f35b6103a660048036038101906103a19190613a21565b610ec8565b6040516103b39190613513565b60405180910390f35b6103c4610f32565b6040516103d19190613937565b60405180910390f35b6103f460048036038101906103ef9190613d12565b610f39565b005b610410600480360381019061040b9190613409565b610f4f565b60405161041d9190613458565b60405180910390f35b610440600480360381019061043b9190613409565b610faa565b60405161044d9190613dc9565b60405180910390f35b610470600480360381019061046b9190613e85565b611012565b005b61048c600480360381019061048791906138fb565b611166565b6040516104999190613458565b60405180910390f35b6104aa61118a565b6040516104b79190613937565b60405180910390f35b6104c86111ae565b6040516104d59190613937565b60405180910390f35b6104f860048036038101906104f39190613a21565b6111d2565b005b6105026111f3565b60405161050f9190613937565b60405180910390f35b610532600480360381019061052d9190613f24565b611217565b60405161053f9190613513565b60405180910390f35b610562600480360381019061055d9190613f64565b6112ab565b005b60008073ffffffffffffffffffffffffffffffffffffffff168373ffffffffffffffffffffffffffffffffffffffff16036105d4576040517f08c379a00000000000000000000000000000000000000000000000000000000081526004016105cb9061406d565b60405180910390fd5b6002600083815260200190815260200160002060008473ffffffffffffffffffffffffffffffffffffffff1673ffffffffffffffffffffffffffffffffffffffff16815260200190815260200160002054905092915050565b600060405160200161063e9061410a565b604051602081830303815290604052805190602001207bffffffffffffffffffffffffffffffffffffffffffffffffffffffff1916827bffffffffffffffffffffffffffffffffffffffffffffffffffffffff1916148061070057506040516020016106a990614191565b604051602081830303815290604052805190602001207bffffffffffffffffffffffffffffffffffffffffffffffffffffffff1916827bffffffffffffffffffffffffffffffffffffffffffffffffffffffff1916145b8061076c5750604051602001610715906141f2565b604051602081830303815290604052805190602001207bffffffffffffffffffffffffffffffffffffffffffffffffffffffff1916827bffffffffffffffffffffffffffffffffffffffffffffffffffffffff1916145b806107d8575060405160200161078190614279565b604051602081830303815290604052805190602001207bffffffffffffffffffffffffffffffffffffffffffffffffffffffff1916827bffffffffffffffffffffffffffffffffffffffffffffffffffffffff1916145b806107e857506107e78261145c565b5b9050919050565b60606107fa8261153e565b6008600084815260200190815260200160002060405160200161081e9291906143b7565b6040516020818303038152906040529050919050565b6108657f9f2df0fed2c77648de5860a4cc508cd0818c85b8b8a1ab4ceeef8d981c8956a66108606115d2565b610ec8565b6108a4576040517f08c379a000000000000000000000000000000000000000000000000000000000815260040161089b90614427565b60405180910390fd5b6108b0848484846115da565b50505050565b6000806000838152602001908152602001600020600101549050919050565b6006600082815260200190815260200160002060006108f26115d2565b73ffffffffffffffffffffffffffffffffffffffff1673ffffffffffffffffffffffffffffffffffffffff1681526020019081526020016000205460016109399190614476565b61094a6109446115d2565b83610564565b101561098b576040517f08c379a00000000000000000000000000000000000000000000000000000000081526004016109829061451c565b60405180910390fd5b6109b57f4886eb2a6e42985b875fa0acd157df1bad0bfb026625fc9a44e7d0a194cec4a483610ec8565b6109f4576040517f08c379a00000000000000000000000000000000000000000000000000000000081526004016109eb906145ae565b60405180910390fd5b600280811115610a0757610a06613d52565b5b600560008381526020019081526020016000206000610a246115d2565b73ffffffffffffffffffffffffffffffffffffffff1673ffffffffffffffffffffffffffffffffffffffff16815260200190815260200160002060009054906101000a900460ff166002811115610a7e57610a7d613d52565b5b14610abe576040517f08c379a0000000000000000000000000000000000000000000000000000000008152600401610ab590614640565b60405180910390fd5b600660008281526020019081526020016000206000610adb6115d2565b73ffffffffffffffffffffffffffffffffffffffff1673ffffffffffffffffffffffffffffffffffffffff1681526020019081526020016000206000815480929190610b2690614660565b91905055507ff073b4f87e3ff1bcc19837c018480491115f65669a30fb8935e9d159df9a823b610b546115d2565b826001604051610b66939291906146ed565b60405180910390a15050565b610b7a6115d2565b73ffffffffffffffffffffffffffffffffffffffff168573ffffffffffffffffffffffffffffffffffffffff161480610bc05750610bbf85610bba6115d2565b611217565b5b610bff576040517f08c379a0000000000000000000000000000000000000000000000000000000008152600401610bf690614796565b60405180910390fd5b610c0c8585858585611807565b5050505050565b610c1c826108b6565b610c2581611b2b565b610c2f8383611b3f565b505050565b610c3c6115d2565b73ffffffffffffffffffffffffffffffffffffffff168173ffffffffffffffffffffffffffffffffffffffff1614610ca9576040517f08c379a0000000000000000000000000000000000000000000000000000000008152600401610ca090614828565b60405180910390fd5b610cb38282611b73565b5050565b6060600860008381526020019081526020016000208054610cd7906142ee565b80601f0160208091040260200160405190810160405280929190818152602001828054610d03906142ee565b8015610d505780601f10610d2557610100808354040283529160200191610d50565b820191906000526020600020905b815481529060010190602001808311610d3357829003601f168201915b50505050509050919050565b60608151835114610da2576040517f08c379a0000000000000000000000000000000000000000000000000000000008152600401610d99906148ba565b60405180910390fd5b6000835167ffffffffffffffff811115610dbf57610dbe613612565b5b604051908082528060200260200182016040528015610ded5781602001602082028036833780820191505090505b50905060005b8451811015610e6a57610e3a858281518110610e1257610e116148da565b5b6020026020010151858381518110610e2d57610e2c6148da565b5b6020026020010151610564565b828281518110610e4d57610e4c6148da565b5b60200260200101818152505080610e6390614660565b9050610df3565b508091505092915050565b7ff670b7b0b7faf732c76fac286cc42384dadf3ea7d07a3350bbc88d6690302e3b81565b6000610ec08260016000868152602001908152602001600020611ba790919063ffffffff16565b905092915050565b600080600084815260200190815260200160002060000160008373ffffffffffffffffffffffffffffffffffffffff1673ffffffffffffffffffffffffffffffffffffffff16815260200190815260200160002060009054906101000a900460ff16905092915050565b6000801b81565b610f4b610f446115d2565b8383611bc1565b5050565b60006006600083815260200190815260200160002060008473ffffffffffffffffffffffffffffffffffffffff1673ffffffffffffffffffffffffffffffffffffffff16815260200190815260200160002054905092915050565b60006005600083815260200190815260200160002060008473ffffffffffffffffffffffffffffffffffffffff1673ffffffffffffffffffffffffffffffffffffffff16815260200190815260200160002060009054906101000a900460ff16905092915050565b600061101c611d2d565b905061104f7f9f2df0fed2c77648de5860a4cc508cd0818c85b8b8a1ab4ceeef8d981c8956a661104a6115d2565b610ec8565b61108e576040517f08c379a000000000000000000000000000000000000000000000000000000000815260040161108590614427565b60405180910390fd5b61109a85828686611d43565b816008600083815260200190815260200160002090816110ba9190614a96565b506110c3611ef4565b7f3088c2d4a2bab62ee06acec0aaf26b6564a6c4242b69d4b15ee322254a07d78c8582866005600086815260200190815260200160002060008a73ffffffffffffffffffffffffffffffffffffffff1673ffffffffffffffffffffffffffffffffffffffff16815260200190815260200160002060009054906101000a900460ff1686604051611157959493929190614b68565b60405180910390a15050505050565b600061118360016000848152602001908152602001600020611f0e565b9050919050565b7f4886eb2a6e42985b875fa0acd157df1bad0bfb026625fc9a44e7d0a194cec4a481565b7f9f2df0fed2c77648de5860a4cc508cd0818c85b8b8a1ab4ceeef8d981c8956a681565b6111db826108b6565b6111e481611b2b565b6111ee8383611b73565b505050565b7fe1ce6ecbfd35e6b9ca3d4016648bee038dbc666116e2b442a18566c20dd1a45481565b6000600360008473ffffffffffffffffffffffffffffffffffffffff1673ffffffffffffffffffffffffffffffffffffffff16815260200190815260200160002060008373ffffffffffffffffffffffffffffffffffffffff1673ffffffffffffffffffffffffffffffffffffffff16815260200190815260200160002060009054906101000a900460ff16905092915050565b6112b36115d2565b73ffffffffffffffffffffffffffffffffffffffff168573ffffffffffffffffffffffffffffffffffffffff1614806112f957506112f8856112f36115d2565b611217565b5b611338576040517f08c379a000000000000000000000000000000000000000000000000000000000815260040161132f90614796565b60405180910390fd5b6113458585858585611f23565b5050505050565b6113568282610ec8565b61142857600160008084815260200190815260200160002060000160008373ffffffffffffffffffffffffffffffffffffffff1673ffffffffffffffffffffffffffffffffffffffff16815260200190815260200160002060006101000a81548160ff0219169083151502179055506113cd6115d2565b73ffffffffffffffffffffffffffffffffffffffff168173ffffffffffffffffffffffffffffffffffffffff16837f2f8788117e7eff1d82e926ec794901d17c78024a50270940304540a733656f0d60405160405180910390a45b5050565b6000611454836000018373ffffffffffffffffffffffffffffffffffffffff1660001b6121c1565b905092915050565b60007fd9b67a26000000000000000000000000000000000000000000000000000000007bffffffffffffffffffffffffffffffffffffffffffffffffffffffff1916827bffffffffffffffffffffffffffffffffffffffffffffffffffffffff1916148061152757507f0e89341c000000000000000000000000000000000000000000000000000000007bffffffffffffffffffffffffffffffffffffffffffffffffffffffff1916827bffffffffffffffffffffffffffffffffffffffffffffffffffffffff1916145b80611537575061153682612231565b5b9050919050565b60606004805461154d906142ee565b80601f0160208091040260200160405190810160405280929190818152602001828054611579906142ee565b80156115c65780601f1061159b576101008083540402835291602001916115c6565b820191906000526020600020905b8154815290600101906020018083116115a957829003601f168201915b50505050509050919050565b600033905090565b600073ffffffffffffffffffffffffffffffffffffffff168473ffffffffffffffffffffffffffffffffffffffff1603611649576040517f08c379a000000000000000000000000000000000000000000000000000000000815260040161164090614c34565b60405180910390fd5b815183511461168d576040517f08c379a000000000000000000000000000000000000000000000000000000000815260040161168490614cc6565b60405180910390fd5b60006116976115d2565b90506116a8816000878787876122ab565b60005b8451811015611762578381815181106116c7576116c66148da565b5b6020026020010151600260008784815181106116e6576116e56148da565b5b6020026020010151815260200190815260200160002060008873ffffffffffffffffffffffffffffffffffffffff1673ffffffffffffffffffffffffffffffffffffffff16815260200190815260200160002060008282546117489190614476565b92505081905550808061175a90614660565b9150506116ab565b508473ffffffffffffffffffffffffffffffffffffffff16600073ffffffffffffffffffffffffffffffffffffffff168273ffffffffffffffffffffffffffffffffffffffff167f4a39dc06d4c0dbc64b70af90fd698a233a518aa5d07e595d983b8c0526c8f7fb87876040516117da929190614ce6565b60405180910390a46117f1816000878787876128cd565b611800816000878787876128d5565b5050505050565b815183511461184b576040517f08c379a000000000000000000000000000000000000000000000000000000000815260040161184290614cc6565b60405180910390fd5b600073ffffffffffffffffffffffffffffffffffffffff168473ffffffffffffffffffffffffffffffffffffffff16036118ba576040517f08c379a00000000000000000000000000000000000000000000000000000000081526004016118b190614d8f565b60405180910390fd5b60006118c46115d2565b90506118d48187878787876122ab565b60005b8451811015611a885760008582815181106118f5576118f46148da565b5b602002602001015190506000858381518110611914576119136148da565b5b6020026020010151905060006002600084815260200190815260200160002060008b73ffffffffffffffffffffffffffffffffffffffff1673ffffffffffffffffffffffffffffffffffffffff168152602001908152602001600020549050818110156119b6576040517f08c379a00000000000000000000000000000000000000000000000000000000081526004016119ad90614e21565b60405180910390fd5b8181036002600085815260200190815260200160002060008c73ffffffffffffffffffffffffffffffffffffffff1673ffffffffffffffffffffffffffffffffffffffff16815260200190815260200160002081905550816002600085815260200190815260200160002060008b73ffffffffffffffffffffffffffffffffffffffff1673ffffffffffffffffffffffffffffffffffffffff1681526020019081526020016000206000828254611a6d9190614476565b9250508190555050505080611a8190614660565b90506118d7565b508473ffffffffffffffffffffffffffffffffffffffff168673ffffffffffffffffffffffffffffffffffffffff168273ffffffffffffffffffffffffffffffffffffffff167f4a39dc06d4c0dbc64b70af90fd698a233a518aa5d07e595d983b8c0526c8f7fb8787604051611aff929190614ce6565b60405180910390a4611b158187878787876128cd565b611b238187878787876128d5565b505050505050565b611b3c81611b376115d2565b612aac565b50565b611b49828261134c565b611b6e816001600085815260200190815260200160002061142c90919063ffffffff16565b505050565b611b7d8282612b49565b611ba28160016000858152602001908152602001600020612c2a90919063ffffffff16565b505050565b6000611bb68360000183612c5a565b60001c905092915050565b8173ffffffffffffffffffffffffffffffffffffffff168373ffffffffffffffffffffffffffffffffffffffff1603611c2f576040517f08c379a0000000000000000000000000000000000000000000000000000000008152600401611c2690614eb3565b60405180910390fd5b80600360008573ffffffffffffffffffffffffffffffffffffffff1673ffffffffffffffffffffffffffffffffffffffff16815260200190815260200160002060008473ffffffffffffffffffffffffffffffffffffffff1673ffffffffffffffffffffffffffffffffffffffff16815260200190815260200160002060006101000a81548160ff0219169083151502179055508173ffffffffffffffffffffffffffffffffffffffff168373ffffffffffffffffffffffffffffffffffffffff167f17307eab39ab6107e8899845ad3d59bd9653f200f220920489ca2b5937696c3183604051611d209190613513565b60405180910390a3505050565b60006001600954611d3e9190614476565b905090565b600073ffffffffffffffffffffffffffffffffffffffff168473ffffffffffffffffffffffffffffffffffffffff1603611db2576040517f08c379a0000000000000000000000000000000000000000000000000000000008152600401611da990614c34565b60405180910390fd5b6000611dbc6115d2565b90506000611dc985612c85565b90506000611dd685612c85565b9050611de7836000898585896122ab565b846002600088815260200190815260200160002060008973ffffffffffffffffffffffffffffffffffffffff1673ffffffffffffffffffffffffffffffffffffffff1681526020019081526020016000206000828254611e479190614476565b925050819055508673ffffffffffffffffffffffffffffffffffffffff16600073ffffffffffffffffffffffffffffffffffffffff168473ffffffffffffffffffffffffffffffffffffffff167fc3d58168c5ae7397731d063d5bbf3d657854427343f4c083240f7aacaa2d0f628989604051611ec5929190614ed3565b60405180910390a4611edc836000898585896128cd565b611eeb83600089898989612cff565b50505050505050565b60096000815480929190611f0790614660565b9190505550565b6000611f1c82600001612ed6565b9050919050565b600073ffffffffffffffffffffffffffffffffffffffff168473ffffffffffffffffffffffffffffffffffffffff1603611f92576040517f08c379a0000000000000000000000000000000000000000000000000000000008152600401611f8990614d8f565b60405180910390fd5b6000611f9c6115d2565b90506000611fa985612c85565b90506000611fb685612c85565b9050611fc68389898585896122ab565b60006002600088815260200190815260200160002060008a73ffffffffffffffffffffffffffffffffffffffff1673ffffffffffffffffffffffffffffffffffffffff1681526020019081526020016000205490508581101561205e576040517f08c379a000000000000000000000000000000000000000000000000000000000815260040161205590614e21565b60405180910390fd5b8581036002600089815260200190815260200160002060008b73ffffffffffffffffffffffffffffffffffffffff1673ffffffffffffffffffffffffffffffffffffffff16815260200190815260200160002081905550856002600089815260200190815260200160002060008a73ffffffffffffffffffffffffffffffffffffffff1673ffffffffffffffffffffffffffffffffffffffff16815260200190815260200160002060008282546121159190614476565b925050819055508773ffffffffffffffffffffffffffffffffffffffff168973ffffffffffffffffffffffffffffffffffffffff168573ffffffffffffffffffffffffffffffffffffffff167fc3d58168c5ae7397731d063d5bbf3d657854427343f4c083240f7aacaa2d0f628a8a604051612192929190614ed3565b60405180910390a46121a8848a8a86868a6128cd565b6121b6848a8a8a8a8a612cff565b505050505050505050565b60006121cd8383612ee7565b61222657826000018290806001815401808255809150506001900390600052602060002001600090919091909150558260000180549050836001016000848152602001908152602001600020819055506001905061222b565b600090505b92915050565b60007f5a05180f000000000000000000000000000000000000000000000000000000007bffffffffffffffffffffffffffffffffffffffffffffffffffffffff1916827bffffffffffffffffffffffffffffffffffffffffffffffffffffffff191614806122a457506122a382612f0a565b5b9050919050565b600073ffffffffffffffffffffffffffffffffffffffff168573ffffffffffffffffffffffffffffffffffffffff16146125cd5760005b83518110156125c7578281815181106122fe576122fd6148da565b5b602002602001015161232a8786848151811061231d5761231c6148da565b5b6020026020010151610564565b101561236b576040517f08c379a000000000000000000000000000000000000000000000000000000000815260040161236290614f6e565b60405180910390fd5b6001600281111561237f5761237e613d52565b5b60056000868481518110612396576123956148da565b5b6020026020010151815260200190815260200160002060008873ffffffffffffffffffffffffffffffffffffffff1673ffffffffffffffffffffffffffffffffffffffff16815260200190815260200160002060009054906101000a900460ff16600281111561240957612408613d52565b5b14612449576040517f08c379a000000000000000000000000000000000000000000000000000000000815260040161244090615000565b60405180910390fd5b82818151811061245c5761245b6148da565b5b60200260200101516124888786848151811061247b5761247a6148da565b5b6020026020010151610564565b03612521576000600560008684815181106124a6576124a56148da565b5b6020026020010151815260200190815260200160002060008873ffffffffffffffffffffffffffffffffffffffff1673ffffffffffffffffffffffffffffffffffffffff16815260200190815260200160002060006101000a81548160ff0219169083600281111561251b5761251a613d52565b5b02179055505b60026005600086848151811061253a576125396148da565b5b6020026020010151815260200190815260200160002060008773ffffffffffffffffffffffffffffffffffffffff1673ffffffffffffffffffffffffffffffffffffffff16815260200190815260200160002060006101000a81548160ff021916908360028111156125af576125ae613d52565b5b021790555080806125bf90614660565b9150506122e2565b506128c5565b7fe1ce6ecbfd35e6b9ca3d4016648bee038dbc666116e2b442a18566c20dd1a454816040516020016125ff9190615067565b604051602081830303815290604052612617906150a3565b148061266a57507ff670b7b0b7faf732c76fac286cc42384dadf3ea7d07a3350bbc88d6690302e3b816040516020016126509190615067565b604051602081830303815290604052612668906150a3565b145b6126a9576040517f08c379a00000000000000000000000000000000000000000000000000000000081526004016126a0906151a2565b60405180910390fd5b60007fe1ce6ecbfd35e6b9ca3d4016648bee038dbc666116e2b442a18566c20dd1a454826040516020016126dd9190615067565b6040516020818303038152906040526126f5906150a3565b14612701576002612704565b60015b905060005b84518110156128c25760006127388787848151811061272b5761272a6148da565b5b6020026020010151610564565b14806127de575081600281111561275257612751613d52565b5b60056000878481518110612769576127686148da565b5b6020026020010151815260200190815260200160002060008873ffffffffffffffffffffffffffffffffffffffff1673ffffffffffffffffffffffffffffffffffffffff16815260200190815260200160002060009054906101000a900460ff1660028111156127dc576127db613d52565b5b145b61281d576040517f08c379a000000000000000000000000000000000000000000000000000000000815260040161281490615234565b60405180910390fd5b8160056000878481518110612835576128346148da565b5b6020026020010151815260200190815260200160002060008873ffffffffffffffffffffffffffffffffffffffff1673ffffffffffffffffffffffffffffffffffffffff16815260200190815260200160002060006101000a81548160ff021916908360028111156128aa576128a9613d52565b5b021790555080806128ba90614660565b915050612709565b50505b505050505050565b505050505050565b6128f48473ffffffffffffffffffffffffffffffffffffffff16612f84565b15612aa4578373ffffffffffffffffffffffffffffffffffffffff1663bc197c8187878686866040518663ffffffff1660e01b815260040161293a95949392919061529e565b6020604051808303816000875af192505050801561297657506040513d601f19601f82011682018060405250810190612973919061531b565b60015b612a1b57612982615355565b806308c379a0036129de5750612996615377565b806129a157506129e0565b806040517f08c379a00000000000000000000000000000000000000000000000000000000081526004016129d591906135eb565b60405180910390fd5b505b6040517f08c379a0000000000000000000000000000000000000000000000000000000008152600401612a1290615479565b60405180910390fd5b63bc197c8160e01b7bffffffffffffffffffffffffffffffffffffffffffffffffffffffff1916817bffffffffffffffffffffffffffffffffffffffffffffffffffffffff191614612aa2576040517f08c379a0000000000000000000000000000000000000000000000000000000008152600401612a999061550b565b60405180910390fd5b505b505050505050565b612ab68282610ec8565b612b4557612adb8173ffffffffffffffffffffffffffffffffffffffff166014612fa7565b612ae98360001c6020612fa7565b604051602001612afa9291906155c3565b6040516020818303038152906040526040517f08c379a0000000000000000000000000000000000000000000000000000000008152600401612b3c91906135eb565b60405180910390fd5b5050565b612b538282610ec8565b15612c2657600080600084815260200190815260200160002060000160008373ffffffffffffffffffffffffffffffffffffffff1673ffffffffffffffffffffffffffffffffffffffff16815260200190815260200160002060006101000a81548160ff021916908315150217905550612bcb6115d2565b73ffffffffffffffffffffffffffffffffffffffff168173ffffffffffffffffffffffffffffffffffffffff16837ff6391f5c32d9c69d2a47ea670b442974b53935d1edc7fd64eb21e047a839171b60405160405180910390a45b5050565b6000612c52836000018373ffffffffffffffffffffffffffffffffffffffff1660001b6131e3565b905092915050565b6000826000018281548110612c7257612c716148da565b5b9060005260206000200154905092915050565b60606000600167ffffffffffffffff811115612ca457612ca3613612565b5b604051908082528060200260200182016040528015612cd25781602001602082028036833780820191505090505b5090508281600081518110612cea57612ce96148da565b5b60200260200101818152505080915050919050565b612d1e8473ffffffffffffffffffffffffffffffffffffffff16612f84565b15612ece578373ffffffffffffffffffffffffffffffffffffffff1663f23a6e6187878686866040518663ffffffff1660e01b8152600401612d649594939291906155fd565b6020604051808303816000875af1925050508015612da057506040513d601f19601f82011682018060405250810190612d9d919061531b565b60015b612e4557612dac615355565b806308c379a003612e085750612dc0615377565b80612dcb5750612e0a565b806040517f08c379a0000000000000000000000000000000000000000000000000000000008152600401612dff91906135eb565b60405180910390fd5b505b6040517f08c379a0000000000000000000000000000000000000000000000000000000008152600401612e3c90615479565b60405180910390fd5b63f23a6e6160e01b7bffffffffffffffffffffffffffffffffffffffffffffffffffffffff1916817bffffffffffffffffffffffffffffffffffffffffffffffffffffffff191614612ecc576040517f08c379a0000000000000000000000000000000000000000000000000000000008152600401612ec39061550b565b60405180910390fd5b505b505050505050565b600081600001805490509050919050565b600080836001016000848152602001908152602001600020541415905092915050565b60007f7965db0b000000000000000000000000000000000000000000000000000000007bffffffffffffffffffffffffffffffffffffffffffffffffffffffff1916827bffffffffffffffffffffffffffffffffffffffffffffffffffffffff19161480612f7d5750612f7c826132f7565b5b9050919050565b6000808273ffffffffffffffffffffffffffffffffffffffff163b119050919050565b606060006002836002612fba9190615657565b612fc49190614476565b67ffffffffffffffff811115612fdd57612fdc613612565b5b6040519080825280601f01601f19166020018201604052801561300f5781602001600182028036833780820191505090505b5090507f300000000000000000000000000000000000000000000000000000000000000081600081518110613047576130466148da565b5b60200101907effffffffffffffffffffffffffffffffffffffffffffffffffffffffffffff1916908160001a9053507f7800000000000000000000000000000000000000000000000000000000000000816001815181106130ab576130aa6148da565b5b60200101907effffffffffffffffffffffffffffffffffffffffffffffffffffffffffffff1916908160001a905350600060018460026130eb9190615657565b6130f59190614476565b90505b6001811115613195577f3031323334353637383961626364656600000000000000000000000000000000600f861660108110613137576131366148da565b5b1a60f81b82828151811061314e5761314d6148da565b5b60200101907effffffffffffffffffffffffffffffffffffffffffffffffffffffffffffff1916908160001a905350600485901c94508061318e90615699565b90506130f8565b50600084146131d9576040517f08c379a00000000000000000000000000000000000000000000000000000000081526004016131d09061570e565b60405180910390fd5b8091505092915050565b600080836001016000848152602001908152602001600020549050600081146132eb576000600182613215919061572e565b905060006001866000018054905061322d919061572e565b905081811461329c57600086600001828154811061324e5761324d6148da565b5b9060005260206000200154905080876000018481548110613272576132716148da565b5b90600052602060002001819055508387600101600083815260200190815260200160002081905550505b856000018054806132b0576132af615762565b5b6001900381819060005260206000200160009055905585600101600086815260200190815260200160002060009055600193505050506132f1565b60009150505b92915050565b60007f01ffc9a7000000000000000000000000000000000000000000000000000000007bffffffffffffffffffffffffffffffffffffffffffffffffffffffff1916827bffffffffffffffffffffffffffffffffffffffffffffffffffffffff1916149050919050565b6000604051905090565b600080fd5b600080fd5b600073ffffffffffffffffffffffffffffffffffffffff82169050919050565b60006133a082613375565b9050919050565b6133b081613395565b81146133bb57600080fd5b50565b6000813590506133cd816133a7565b92915050565b6000819050919050565b6133e6816133d3565b81146133f157600080fd5b50565b600081359050613403816133dd565b92915050565b600080604083850312156134205761341f61336b565b5b600061342e858286016133be565b925050602061343f858286016133f4565b9150509250929050565b613452816133d3565b82525050565b600060208201905061346d6000830184613449565b92915050565b60007fffffffff0000000000000000000000000000000000000000000000000000000082169050919050565b6134a881613473565b81146134b357600080fd5b50565b6000813590506134c58161349f565b92915050565b6000602082840312156134e1576134e061336b565b5b60006134ef848285016134b6565b91505092915050565b60008115159050919050565b61350d816134f8565b82525050565b60006020820190506135286000830184613504565b92915050565b6000602082840312156135445761354361336b565b5b6000613552848285016133f4565b91505092915050565b600081519050919050565b600082825260208201905092915050565b60005b8381101561359557808201518184015260208101905061357a565b60008484015250505050565b6000601f19601f8301169050919050565b60006135bd8261355b565b6135c78185613566565b93506135d7818560208601613577565b6135e0816135a1565b840191505092915050565b6000602082019050818103600083015261360581846135b2565b905092915050565b600080fd5b7f4e487b7100000000000000000000000000000000000000000000000000000000600052604160045260246000fd5b61364a826135a1565b810181811067ffffffffffffffff8211171561366957613668613612565b5b80604052505050565b600061367c613361565b90506136888282613641565b919050565b600067ffffffffffffffff8211156136a8576136a7613612565b5b602082029050602081019050919050565b600080fd5b60006136d16136cc8461368d565b613672565b905080838252602082019050602084028301858111156136f4576136f36136b9565b5b835b8181101561371d578061370988826133f4565b8452602084019350506020810190506136f6565b5050509392505050565b600082601f83011261373c5761373b61360d565b5b813561374c8482602086016136be565b91505092915050565b600080fd5b600067ffffffffffffffff82111561377557613774613612565b5b61377e826135a1565b9050602081019050919050565b82818337600083830152505050565b60006137ad6137a88461375a565b613672565b9050828152602081018484840111156137c9576137c8613755565b5b6137d484828561378b565b509392505050565b600082601f8301126137f1576137f061360d565b5b813561380184826020860161379a565b91505092915050565b600080600080608085870312156138245761382361336b565b5b6000613832878288016133be565b945050602085013567ffffffffffffffff81111561385357613852613370565b5b61385f87828801613727565b935050604085013567ffffffffffffffff8111156138805761387f613370565b5b61388c87828801613727565b925050606085013567ffffffffffffffff8111156138ad576138ac613370565b5b6138b9878288016137dc565b91505092959194509250565b6000819050919050565b6138d8816138c5565b81146138e357600080fd5b50565b6000813590506138f5816138cf565b92915050565b6000602082840312156139115761391061336b565b5b600061391f848285016138e6565b91505092915050565b613931816138c5565b82525050565b600060208201905061394c6000830184613928565b92915050565b600080600080600060a0868803121561396e5761396d61336b565b5b600061397c888289016133be565b955050602061398d888289016133be565b945050604086013567ffffffffffffffff8111156139ae576139ad613370565b5b6139ba88828901613727565b935050606086013567ffffffffffffffff8111156139db576139da613370565b5b6139e788828901613727565b925050608086013567ffffffffffffffff811115613a0857613a07613370565b5b613a14888289016137dc565b9150509295509295909350565b60008060408385031215613a3857613a3761336b565b5b6000613a46858286016138e6565b9250506020613a57858286016133be565b9150509250929050565b600067ffffffffffffffff821115613a7c57613a7b613612565b5b602082029050602081019050919050565b6000613aa0613a9b84613a61565b613672565b90508083825260208201905060208402830185811115613ac357613ac26136b9565b5b835b81811015613aec5780613ad888826133be565b845260208401935050602081019050613ac5565b5050509392505050565b600082601f830112613b0b57613b0a61360d565b5b8135613b1b848260208601613a8d565b91505092915050565b60008060408385031215613b3b57613b3a61336b565b5b600083013567ffffffffffffffff811115613b5957613b58613370565b5b613b6585828601613af6565b925050602083013567ffffffffffffffff811115613b8657613b85613370565b5b613b9285828601613727565b9150509250929050565b600081519050919050565b600082825260208201905092915050565b6000819050602082019050919050565b613bd1816133d3565b82525050565b6000613be38383613bc8565b60208301905092915050565b6000602082019050919050565b6000613c0782613b9c565b613c118185613ba7565b9350613c1c83613bb8565b8060005b83811015613c4d578151613c348882613bd7565b9750613c3f83613bef565b925050600181019050613c20565b5085935050505092915050565b60006020820190508181036000830152613c748184613bfc565b905092915050565b60008060408385031215613c9357613c9261336b565b5b6000613ca1858286016138e6565b9250506020613cb2858286016133f4565b9150509250929050565b613cc581613395565b82525050565b6000602082019050613ce06000830184613cbc565b92915050565b613cef816134f8565b8114613cfa57600080fd5b50565b600081359050613d0c81613ce6565b92915050565b60008060408385031215613d2957613d2861336b565b5b6000613d37858286016133be565b9250506020613d4885828601613cfd565b9150509250929050565b7f4e487b7100000000000000000000000000000000000000000000000000000000600052602160045260246000fd5b60038110613d9257613d91613d52565b5b50565b6000819050613da382613d81565b919050565b6000613db382613d95565b9050919050565b613dc381613da8565b82525050565b6000602082019050613dde6000830184613dba565b92915050565b600067ffffffffffffffff821115613dff57613dfe613612565b5b613e08826135a1565b9050602081019050919050565b6000613e28613e2384613de4565b613672565b905082815260208101848484011115613e4457613e43613755565b5b613e4f84828561378b565b509392505050565b600082601f830112613e6c57613e6b61360d565b5b8135613e7c848260208601613e15565b91505092915050565b60008060008060808587031215613e9f57613e9e61336b565b5b6000613ead878288016133be565b9450506020613ebe878288016133f4565b935050604085013567ffffffffffffffff811115613edf57613ede613370565b5b613eeb878288016137dc565b925050606085013567ffffffffffffffff811115613f0c57613f0b613370565b5b613f1887828801613e57565b91505092959194509250565b60008060408385031215613f3b57613f3a61336b565b5b6000613f49858286016133be565b9250506020613f5a858286016133be565b9150509250929050565b600080600080600060a08688031215613f8057613f7f61336b565b5b6000613f8e888289016133be565b9550506020613f9f888289016133be565b9450506040613fb0888289016133f4565b9350506060613fc1888289016133f4565b925050608086013567ffffffffffffffff811115613fe257613fe1613370565b5b613fee888289016137dc565b9150509295509295909350565b7f455243313135353a2061646472657373207a65726f206973206e6f742061207660008201527f616c6964206f776e657200000000000000000000000000000000000000000000602082015250565b6000614057602a83613566565b915061406282613ffb565b604082019050919050565b600060208201905081810360008301526140868161404a565b9050919050565b600081905092915050565b7f6d696e7428616464726573732c75696e743235362c75696e743235362c62797460008201527f6573290000000000000000000000000000000000000000000000000000000000602082015250565b60006140f460238361408d565b91506140ff82614098565b602382019050919050565b6000614115826140e7565b9150819050919050565b7f6d696e74426174636828616464726573732c75696e743235365b5d2c75696e7460008201527f3235365b5d2c6279746573290000000000000000000000000000000000000000602082015250565b600061417b602c8361408d565b91506141868261411f565b602c82019050919050565b600061419c8261416e565b9150819050919050565b7f6c6f636b28616464726573732c75696e74323536290000000000000000000000600082015250565b60006141dc60158361408d565b91506141e7826141a6565b601582019050919050565b60006141fd826141cf565b9150819050919050565b7f6164644d61726b6574506c616365416363657074616e63652875696e7432353660008201527f2900000000000000000000000000000000000000000000000000000000000000602082015250565b600061426360218361408d565b915061426e82614207565b602182019050919050565b600061428482614256565b9150819050919050565b60006142998261355b565b6142a3818561408d565b93506142b3818560208601613577565b80840191505092915050565b7f4e487b7100000000000000000000000000000000000000000000000000000000600052602260045260246000fd5b6000600282049050600182168061430657607f821691505b602082108103614319576143186142bf565b5b50919050565b60008190508160005260206000209050919050565b60008154614341816142ee565b61434b818661408d565b94506001821660008114614366576001811461437b576143ae565b60ff19831686528115158202860193506143ae565b6143848561431f565b60005b838110156143a657815481890152600182019150602081019050614387565b838801955050505b50505092915050565b60006143c3828561428e565b91506143cf8284614334565b91508190509392505050565b7f53656e646572206973206e6f742061204d696e74657200000000000000000000600082015250565b6000614411601683613566565b915061441c826143db565b602082019050919050565b6000602082019050818103600083015261444081614404565b9050919050565b7f4e487b7100000000000000000000000000000000000000000000000000000000600052601160045260246000fd5b6000614481826133d3565b915061448c836133d3565b92508282019050808211156144a4576144a3614447565b5b92915050565b7f536861636b31354e4654546f6b656e3a204e6f7420656e6f75676820746f6b6560008201527f6e7320746f206c6f636b00000000000000000000000000000000000000000000602082015250565b6000614506602a83613566565b9150614511826144aa565b604082019050919050565b60006020820190508181036000830152614535816144f9565b9050919050565b7f536861636b31354e4654546f6b656e3a204d61726b657420706c616365206e6f60008201527f7420617574686f72697a65640000000000000000000000000000000000000000602082015250565b6000614598602c83613566565b91506145a38261453c565b604082019050919050565b600060208201905081810360008301526145c78161458b565b9050919050565b7f536861636b31354e4654546f6b656e3a20596f752063616e206f6e6c7920757360008201527f652074686520555341424c4520546f6b656e0000000000000000000000000000602082015250565b600061462a603283613566565b9150614635826145ce565b604082019050919050565b600060208201905081810360008301526146598161461d565b9050919050565b600061466b826133d3565b91507fffffffffffffffffffffffffffffffffffffffffffffffffffffffffffffffff820361469d5761469c614447565b5b600182019050919050565b6000819050919050565b6000819050919050565b60006146d76146d26146cd846146a8565b6146b2565b6133d3565b9050919050565b6146e7816146bc565b82525050565b60006060820190506147026000830186613cbc565b61470f6020830185613449565b61471c60408301846146de565b949350505050565b7f455243313135353a2063616c6c6572206973206e6f7420746f6b656e206f776e60008201527f6572206e6f7220617070726f7665640000000000000000000000000000000000602082015250565b6000614780602f83613566565b915061478b82614724565b604082019050919050565b600060208201905081810360008301526147af81614773565b9050919050565b7f416363657373436f6e74726f6c3a2063616e206f6e6c792072656e6f756e636560008201527f20726f6c657320666f722073656c660000000000000000000000000000000000602082015250565b6000614812602f83613566565b915061481d826147b6565b604082019050919050565b6000602082019050818103600083015261484181614805565b9050919050565b7f455243313135353a206163636f756e747320616e6420696473206c656e67746860008201527f206d69736d617463680000000000000000000000000000000000000000000000602082015250565b60006148a4602983613566565b91506148af82614848565b604082019050919050565b600060208201905081810360008301526148d381614897565b9050919050565b7f4e487b7100000000000000000000000000000000000000000000000000000000600052603260045260246000fd5b60006020601f8301049050919050565b600082821b905092915050565b6000600883026149567fffffffffffffffffffffffffffffffffffffffffffffffffffffffffffffffff82614919565b6149608683614919565b95508019841693508086168417925050509392505050565b600061499361498e614989846133d3565b6146b2565b6133d3565b9050919050565b6000819050919050565b6149ad83614978565b6149c16149b98261499a565b848454614926565b825550505050565b600090565b6149d66149c9565b6149e18184846149a4565b505050565b5b81811015614a05576149fa6000826149ce565b6001810190506149e7565b5050565b601f821115614a4a57614a1b8161431f565b614a2484614909565b81016020851015614a33578190505b614a47614a3f85614909565b8301826149e6565b50505b505050565b600082821c905092915050565b6000614a6d60001984600802614a4f565b1980831691505092915050565b6000614a868383614a5c565b9150826002028217905092915050565b614a9f8261355b565b67ffffffffffffffff811115614ab857614ab7613612565b5b614ac282546142ee565b614acd828285614a09565b600060209050601f831160018114614b005760008415614aee578287015190505b614af88582614a7a565b865550614b60565b601f198416614b0e8661431f565b60005b82811015614b3657848901518255600182019150602085019450602081019050614b11565b86831015614b535784890151614b4f601f891682614a5c565b8355505b6001600288020188555050505b505050505050565b600060a082019050614b7d6000830188613cbc565b614b8a6020830187613449565b614b976040830186613449565b614ba46060830185613dba565b8181036080830152614bb681846135b2565b90509695505050505050565b7f455243313135353a206d696e7420746f20746865207a65726f2061646472657360008201527f7300000000000000000000000000000000000000000000000000000000000000602082015250565b6000614c1e602183613566565b9150614c2982614bc2565b604082019050919050565b60006020820190508181036000830152614c4d81614c11565b9050919050565b7f455243313135353a2069647320616e6420616d6f756e7473206c656e6774682060008201527f6d69736d61746368000000000000000000000000000000000000000000000000602082015250565b6000614cb0602883613566565b9150614cbb82614c54565b604082019050919050565b60006020820190508181036000830152614cdf81614ca3565b9050919050565b60006040820190508181036000830152614d008185613bfc565b90508181036020830152614d148184613bfc565b90509392505050565b7f455243313135353a207472616e7366657220746f20746865207a65726f20616460008201527f6472657373000000000000000000000000000000000000000000000000000000602082015250565b6000614d79602583613566565b9150614d8482614d1d565b604082019050919050565b60006020820190508181036000830152614da881614d6c565b9050919050565b7f455243313135353a20696e73756666696369656e742062616c616e636520666f60008201527f72207472616e7366657200000000000000000000000000000000000000000000602082015250565b6000614e0b602a83613566565b9150614e1682614daf565b604082019050919050565b60006020820190508181036000830152614e3a81614dfe565b9050919050565b7f455243313135353a2073657474696e6720617070726f76616c2073746174757360008201527f20666f722073656c660000000000000000000000000000000000000000000000602082015250565b6000614e9d602983613566565b9150614ea882614e41565b604082019050919050565b60006020820190508181036000830152614ecc81614e90565b9050919050565b6000604082019050614ee86000830185613449565b614ef56020830184613449565b9392505050565b7f536861636b31354e4654546f6b656e3a20496e73756666696369656e7420626160008201527f6c616e6365000000000000000000000000000000000000000000000000000000602082015250565b6000614f58602583613566565b9150614f6382614efc565b604082019050919050565b60006020820190508181036000830152614f8781614f4b565b9050919050565b7f536861636b31354e4654546f6b656e3a205468697320746f6b656e206973206e60008201527f6f74207472616e7366657261626c650000000000000000000000000000000000602082015250565b6000614fea602f83613566565b9150614ff582614f8e565b604082019050919050565b6000602082019050818103600083015261501981614fdd565b9050919050565b600081519050919050565b600081905092915050565b600061504182615020565b61504b818561502b565b935061505b818560208601613577565b80840191505092915050565b60006150738284615036565b915081905092915050565b6000819050602082019050919050565b600061509a82516138c5565b80915050919050565b60006150ae82615020565b826150b88461507e565b90506150c38161508e565b92506020821015615103576150fe7fffffffffffffffffffffffffffffffffffffffffffffffffffffffffffffffff83602003600802614919565b831692505b5050919050565b7f536861636b31354e4654546f6b656e3a20496e7075742073686f756c6420626560008201527f203120666f72205041594954464f5257415244206f72203220666f722055534160208201527f424c450000000000000000000000000000000000000000000000000000000000604082015250565b600061518c604383613566565b91506151978261510a565b606082019050919050565b600060208201905081810360008301526151bb8161517f565b9050919050565b7f536861636b31354e4654546f6b656e3a20496e636f7272656374206d696e746960008201527f6e672074797065206f6620746f6b656e00000000000000000000000000000000602082015250565b600061521e603083613566565b9150615229826151c2565b604082019050919050565b6000602082019050818103600083015261524d81615211565b9050919050565b600082825260208201905092915050565b600061527082615020565b61527a8185615254565b935061528a818560208601613577565b615293816135a1565b840191505092915050565b600060a0820190506152b36000830188613cbc565b6152c06020830187613cbc565b81810360408301526152d28186613bfc565b905081810360608301526152e68185613bfc565b905081810360808301526152fa8184615265565b90509695505050505050565b6000815190506153158161349f565b92915050565b6000602082840312156153315761533061336b565b5b600061533f84828501615306565b91505092915050565b60008160e01c9050919050565b600060033d11156153745760046000803e615371600051615348565b90505b90565b600060443d1061540457615389613361565b60043d036004823e80513d602482011167ffffffffffffffff821117156153b1575050615404565b808201805167ffffffffffffffff8111156153cf5750505050615404565b80602083010160043d0385018111156153ec575050505050615404565b6153fb82602001850186613641565b82955050505050505b90565b7f455243313135353a207472616e7366657220746f206e6f6e204552433131353560008201527f526563656976657220696d706c656d656e746572000000000000000000000000602082015250565b6000615463603483613566565b915061546e82615407565b604082019050919050565b6000602082019050818103600083015261549281615456565b9050919050565b7f455243313135353a204552433131353552656365697665722072656a6563746560008201527f6420746f6b656e73000000000000000000000000000000000000000000000000602082015250565b60006154f5602883613566565b915061550082615499565b604082019050919050565b60006020820190508181036000830152615524816154e8565b9050919050565b7f416363657373436f6e74726f6c3a206163636f756e7420000000000000000000600082015250565b600061556160178361408d565b915061556c8261552b565b601782019050919050565b7f206973206d697373696e6720726f6c6520000000000000000000000000000000600082015250565b60006155ad60118361408d565b91506155b882615577565b601182019050919050565b60006155ce82615554565b91506155da828561428e565b91506155e5826155a0565b91506155f1828461428e565b91508190509392505050565b600060a0820190506156126000830188613cbc565b61561f6020830187613cbc565b61562c6040830186613449565b6156396060830185613449565b818103608083015261564b8184615265565b90509695505050505050565b6000615662826133d3565b915061566d836133d3565b925082820261567b816133d3565b9150828204841483151761569257615691614447565b5b5092915050565b60006156a4826133d3565b9150600082036156b7576156b6614447565b5b600182039050919050565b7f537472696e67733a20686578206c656e67746820696e73756666696369656e74600082015250565b60006156f8602083613566565b9150615703826156c2565b602082019050919050565b60006020820190508181036000830152615727816156eb565b9050919050565b6000615739826133d3565b9150615744836133d3565b925082820390508181111561575c5761575b614447565b5b92915050565b7f4e487b7100000000000000000000000000000000000000000000000000000000600052603160045260246000fdfea26469706673582212202493ae9c248ac1729eddc1e3cf8b0283a529d46ec91abc23a957281d249a0e1664736f6c63430008110033",
  "linkReferences": {},
  "deployedLinkReferences": {}
}